:020000040000FA
:040000000128FE2FA6
:100EA000A0300032890B512F080087270730F3004C
:100EB0000030F4006F27B8275B2FF2002400951351
:100EC00070089100141C622F951372089100141C75
:100ED000672F951371089100141808006C2FF50105
:100EE000F60174087602031D772F73087502031844
:100EF000822FF001F10100305D270130F50700304D
:100F0000F63D712FA0300032890B832F080023009B
:100F10008C0121008C0120008C0104303D009500E3
:100F2000093020009E009D01911004309F00803008
:100F30002C00990002309800403097002400940162
:100F400023309500920101303E0091001030920054
:100F50001230930013309400950105309600103044
:100F600097000830980020309900803090000800E9
:100F7000F501F0017508F3007308F10000305D27FA
:100F80007508F3007308F000F10100305D27F001EF
:100F9000F10175085D27F0017508F3007308F10091
:100FA00075085D277508F3007308F000F1017508F6
:100FB0005D277508F3007308F0007508F4007408E5
:100FC000F10000305D277508F3007308F000750824
:100FD000F4007408F10075085D2750276830F300AD
:100FE000E430890BF12FF30BF12F00320130F300C5
:100FF0007308F507750A03190800B92F2000552F4B
:020000040001F9
:08000E008CD733E7FFDFFFFF91
:00000001FF
